:10000000A9C0DDC0C2C0C1C0C0C0BFC0BEC0BDC0ED
:10001000BCC0BBC0BAC0B9C0B8C0B7C0B6C0B5C01C
:10002000B4C0B3C0B2C0416C6C20776F726B2061FA
:100030006E64206E6F20706C6179206D616B6573EA
:10004000204A61636B20612064756C6C20626F795B
:100050002E200005010906A1017501950805071963
:10006000E029E715002501810295017508810395B6
:10007000057501050819012905910295017503917E
:100080000395067508150025650507190029658182
:1000900000C009022200010100A032090400000191
:1000A00003010100092101010001223F0007058130
:1000B0000308000A1201100100000008C016DB2727
:1000C0000001010203013C036A006500740068003E
:1000D0006F006D0073006F006E002E0077006F00E0
:1000E00072006400700072006500730073002E00DF
:1000F00063006F006D003A003000300030003000C7
:1001000030001E0348006500720065002700730080
:1001100020004A006F0068006E006E007900210028
:1001200030036A006500740068006F006D007300A2
:100130006F006E002E0077006F0072006400700088
:1001400072006500730073002E0063006F006D0085
:100150000403090411241FBECFE5D4E0DEBFCDBFE8
:1001600010E0A0E6B0E0E6EAFCE002C005900D92E7
:10017000A637B107D9F710E0A6E7B0E001C01D929D
:10018000AF3BB107E1F7DDD2D7C43ACFA82FB92FE3
:1001900080E090E041E050EA609530E009C02D91A8
:1001A00082279795879510F084279527305EC8F3AE
:1001B0006F5FA8F30895EADF8D939D930895CF9321
:1001C000CFB7CF93C395B09BE9F7B09B09C0B09B65
:1001D00007C0B09B05C0B09B03C0B09B01C0A3C0CB
:1001E000DF93C0919C00DD27CD55DF4FB09B02C04F
:1001F000DF91EBCF2F930F931F9306B32FEF00FBED
:1002000020F94F933F9316B34FEF012700FB21F9DD
:100210003BE031C04E7F012F16B3216028C0102F64
:100220004D7F2260000006B329C04B7F2460012F60
:10023000000016B32BC016B3477F28602AC04F7E3C
:1002400006B320612CC04F7D16B320622FC04F7BB8
:1002500006B3206432C0422706B349934FEF000033
:10026000102710FB20F916B31370C9F1297F91F202
:10027000012700FB21F906B3237F89F2315058F1A1
:10028000102710FB22F916B3277E79F2012700FB15
:1002900023F92F7C81F206B3102710FB24F92F7964
:1002A00071F200C016B3012700FB25F92F7359F234
:1002B00000C006B3102710FB26F9223040F200C020
:1002C00016B3012700FB27F9243028F64F77206862
:1002D00016B30000F9CF10E41ABF002719C03B5035
:1002E0003195C31BD04010E41ABF0881033CF9F0DC
:1002F0000B34E9F0209199001981110F1213EDCF01
:100300004A81441F093641F10D3211F0013E29F7AF
:100310000093A1003F914F911F910F912F91DF9179
:10032000CAB7C6FD4FCFCF91CFBFCF9118952091BF
:10033000A100222379F310919F00112369F5343035
:100340006AF130939F0020939B0010919C003BE04A
:10035000311B30939C0022C000919F000130E4F4D7
:100360000AE54F7049F43091740034FD19C00093D0
:100370007400C2E8D0E018C030918D0034FD10C088
:1003800000938D00CEE8D0E00FC02795A8F451501F
:10039000A9F4220F0000F9CF4AE503C042ED01C0E5
:1003A000432FC4E1D0E032E017B31360C09A17BB0B
:1003B00008B320E413E05F93012756E008BB2795BC
:1003C00020F4515021F4220FF9CF012756E000000C
:1003D0003B5A08BBD0F2279528F4515029F4220F3C
:1003E0000000F9CF012756E0279508BB20F45150B3
:1003F00021F4220FF9CF012756E02991332308BBBE
:1004000021F60C7F1091A000110FC651D04008BBFF
:1004100011F01093990010E41ABF016017B31C7F0C
:10042000402F4C7F5F9100C000C008BB17BB48BB8A
:1004300071CFFC0180818076803299F58181833093
:1004400099F038F48130E1F0823059F582E790E09C
:100450000DC08A3029F08B3079F0893011F518C041
:100460008381809372001DC089E790E090939E0085
:1004700080939D0081E0089583818093790011C06D
:100480008AE790E090939E0080939D0088E0089515
:1004900081E0268137812130310509F080E08195A6
:1004A000089580E00895FC0190818091780098176C
:1004B00039F0809177008A3008F48F5F809377005D
:1004C0009093780080917800A09A81FF02C0A8984C
:1004D00001C0A89A81E00895CF93C82F10927A00A6
:1004E00010927C008FEB8C0F8A3128F482E080938D
:1004F0007A0083EC0EC08FE98C0F8A3110F483EA06
:1005000008C080ED8C0F8A3030F4C03309F4AAC0E3
:100510008DEE8C0FD7C0CF3209F4CFC0E0F5C632D4
:1005200009F491C0F8F4C13209F474C058F4CA3027
:1005300009F4C7C0C03209F4C2C0C93009F0C4C050
:100540008BE2C0C0C33209F46FC008F4A4C0C43247
:1005500009F46FC0C53209F0B7C082E080937A0019
:1005600082E2B0C0CA3209F473C048F4C83209F458
:1005700074C008F493C082E080937A0073C0CC32D8
:1005800009F491C008F474C0CD3209F46FC0CE32C2
:1005900009F48EC099C0CC3509F479C0D8F4CD33B4
:1005A00009F469C060F4CB3309F473C008F078C073
:1005B000CA3309F089C082E080937A006AC0CF33E1
:1005C00009F478C008F471C0C03449F1CB3509F49E
:1005D00054C07AC0C03609F447C040F4CE3571F13A
:1005E00008F450C082E080937A0040C0CC3709F410
:1005F0004BC038F4CB3709F067C082E080937A00B3
:100600003CC0CD37E1F1CE3709F05EC082E0809387
:100610007A002AC082E080937A008EE153C082E0A3
:1006200080937A008FE14EC082E080937A0080E26E
:1006300049C082E080937A0081E244C082E08093E6
:100640007A0083E23FC082E080937A0084E23AC07D
:1006500082E080937A0085E235C082E080937A0060
:1006600086E230C087E22EC085E32CC08DE22AC02E
:1006700082E080937A008EE225C08FE223C082E080
:1006800080937A0080E31EC082E080937A0081E349
:1006900019C083E317C082E080937A0084E312C01C
:1006A00082E080937A0086E30DC082E080937A0036
:1006B00087E308C082E080937A0088E303C08CE27D
:1006C00001C088E280937C0028D28F719927853001
:1006D00091053CF4C156CA3190F482E080937A00CF
:1006E0000EC04F9761F480917C00883241F0809178
:1006F00076008D7F883219F08AE280937C008091A9
:100700007C0080937600CF91089587D080918D00F2
:1007100084FFFBCF68E08AE790E05BC0DDDEF5DFB9
:1007200010927A0010927B0010927C0010927D0053
:1007300010927E0010927F00109280001092810033
:10074000E4CF80E090E029D2BC016F5F7F4F80E072
:1007500090E028D280E090E020D2E3D184E690E0DF
:100760009093BC008093BB0010927A0010927B00A3
:1007700010927C0010927D0010927E0010927F00FB
:10078000109280001092810088E10FB6F89481BD2C
:1007900011BC0FBEB89A2FEB87E299E02150804040
:1007A0009040E1F700C00000B89860D17894C0E0B4
:1007B00080917700833058F0A19AA99886E290E062
:1007C000BDD1CF5FCD3019F410927700C0E025D0B5
:1007D000EFCFCF93C62F20918D0024FF07C020912B
:1007E0008E0038E8232720938E0003C02AE520934B
:1007F0008D00DC01EFE8F0E09C2F9E0F8D9181933E
:10080000892F8E1B1816D4F36C2F8FE890E0D3DC61
:10081000CC5FC0938D00CF910895CF93DF9360910B
:100820009F00635067FDCBC080919C00CCE0D0E07E
:10083000C81BD109CD55DF4F80919B008D3209F047
:10084000ADC0683009F0B9C083EC809382008AE5BE
:100850008093740010929A008881807619F0CE01FE
:10086000E8DD89C09A8110928B008981811106C0D0
:1008700010928C002BE830E082E079C0853019F4CA
:100880009093A00071C0863009F058C08B818130F0
:1008900041F484EB90E090939E0080939D0082E170
:1008A00049C0823041F482E990E090939E008093A9
:1008B0009D0082E23FC0833041F5911108C080E580
:1008C00091E090939E0080939D0084E033C091302E
:1008D00041F480E291E090939E0080939D0080E33C
:1008E00029C0923041F482E091E090939E00809381
:1008F0009D008EE11FC09330E1F486EC90E0909370
:100900009E0080939D008CE315C0813241F484EAFF
:1009100090E090939E0080939D0089E00BC082320E
:1009200041F483E590E090939E0080939D008FE3D7
:1009300001C080E090E490939A001DC0883069F077
:10094000893019F49093A2000FC08A3049F08B309F
:1009500059F48BE480938E0007C022EA30E002C095
:100960002BE830E081E003C02BE830E080E03093FA
:100970009E0020939D008F3F39F4988197FD8E81D2
:1009800090E890939A0007C09F81911104C09E81C6
:10099000981708F4892F809373000FC080919A00F4
:1009A00087FF0BC0CE017FDD8F3F21F48EE1809366
:1009B000740003C081111092730010929F00809107
:1009C000740084FF46C0809173008F3F09F441C0DA
:1009D000C82F893008F0C8E08C1B80937300809189
:1009E000820098E8892780938200CC2331F12091FE
:1009F0009D0030919E0080919A0086FF0BC0A3E875
:100A0000B0E0F9018C2F8A0F94919D9331968A134F
:100A1000FBCF09C0D901E3E8F0E08C2F8E0F9D9148
:100A200091938E13FCCF8FEF8C0F90E00196820F85
:100A3000931F90939E0080939D006C2F83E890E01D
:100A4000BADBCC5FCC3019F08FEF80937300C0938A
:100A5000740084E196B3937031F48150D9F7109209
:100A6000A00010929900DF91CF91089585B7826020
:100A700085BF8BB780648BBF8BE480938E008AE543
:100A800080938D0008958F929F92AF92BF92CF92E4
:100A9000DF92EF92FF92CF93DF93EC01688179812F
:100AA0008A819B81611571058105910521F464E2BC
:100AB00079ED8BE597E02DE133EF41E050E0A7D0F1
:100AC00049015A019B01AC01A7EAB1E490D06B0146
:100AD0007C01ACEEB4EFA501940195D0C60ED71EF3
:100AE000E81EF91EF7FE06C081E0C81AD108E10829
:100AF00080E8F80AC882D982EA82FB82C6019F7721
:100B0000DF91CF91FF90EF90DF90CF90BF90AF90AB
:100B10009F908F900895B7DF089580E690E0B3DF4F
:100B20000895A0E0B0E08093600090936100A093EE
:100B30006200B09363000895F894B3C00F931F93BD
:100B4000CF93DF93EC01E091BB00F091BC00838177
:100B500081FF1CC000E010E0FE0184916091BB00A9
:100B60007091BC00DB011896ED91FC9119978823D8
:100B700039F00995892B11F00FEF1FEF2196ECCF7B
:100B80008AE00995892B11F4C80102C08FEF9FEF0D
:100B9000DF91CF911F910F910895A8E1B0E042E05D
:100BA00050E006C00196272F12D010C0DC01CB0107
:100BB000FC01E199FECF06C0FFBBEEBBE09A319687
:100BC0000DB20D9241505040B8F70895262FE1998B
:100BD000FECF9FBB8EBBE09A01970DB2021631F09B
:100BE0002DBB0FB6F894E29AE19A0FBE08952BD070
:100BF000A59F900DB49F900DA49F800D911D112471
:100C00000895B7FFF4CFF3DF821B930B0895052EF1
:100C100097FB16F400940FD057FD05D020D007FCA9
:100C200002D046F408C050954095309521953F4F2D
:100C30004F4F5F4F089590958095709561957F4FC8
:100C40008F4F9F4F0895A29FB001B39FC001A39FF4
:100C500001D0B29F700D811D1124911D0895A1E254
:100C60001A2EAA1BBB1BFD010DC0AA1FBB1FEE1F26
:100C7000FF1FA217B307E407F50720F0A21BB30B71
:100C8000E40BF50B661F771F881F991F1A9469F7ED
:100C900060957095809590959B01AC01BD01CF0149
:060CA0000895F894FFCF57
:100CA6000100000000000002000000008E030000AA
:060CB60000007DFF5A0062
:00000001FF
