:1000000057C0BEC170C06FC06EC06DC06CC06BC049
:100010006AC069C068C067C066C065C064C063C0AC
:1000200062C061C060C00403090412036F00620073
:100030006400650076002E00610074000C034D0022
:100040006F007500730065001201100100000008C8
:10005000C016E803000101020001090222000101AB
:1000600000800A09040000010300000009210101C9
:10007000000122340007058103080064050109021C
:10008000A1010901A1000509190129031500250194
:1000900095037501810295017505810305010930FC
:1000A000093109381581257F750895038106C0C07F
:1000B00011241FBECFE5D4E0DEBFCDBF10E0A0E627
:1000C000B0E0ECEFF6E002C005900D92A436B10767
:1000D000D9F710E0A4E6B0E001C01D92A23AB10742
:1000E000E1F7ABD209C38CCF85B7826085BF8BB7F0
:1000F00080648BBF8BE4809378008AE580937700DF
:1001000008951F93CF93DF9390918800935097FDAC
:10011000A1C020918500809184008D3209F098C0A3
:10012000983009F095C0CCE0D0E0C21BD109C4578B
:10013000DF4F83EC80936C008AE58093600010921F
:1001400064008881807621F0CE0154D2282F77C0B8
:100150009A81109275008981882321F4109276008B
:1001600022E067C0853019F49093890061C0863021
:1001700009F04AC08B81813019F488E490E01BC0FB
:10018000823041F48AE590E0909387008093860066
:1001900022E236C08330F9F48A81882341F486E272
:1001A00090E0909387008093860024E029C08130FE
:1001B00041F48AE290E0909387008093860022E1E8
:1001C0001FC08230E1F48CE390E09093870080932D
:1001D00086002CE015C0813241F48CE690E09093CB
:1001E00087008093860029E00BC0823241F48CE7BF
:1001F00090E0909387008093860024E301C020E084
:1002000080E4809364001BC0883021F421E08BE8F7
:1002100090E011C0893019F490938B0009C08A30A6
:1002200011F421E006C08B3019F48BE48093780040
:1002300020E085E790E090938700809386008F818F
:10024000882321F48E81821708F4282F20936100DF
:10025000109288008091600084FF49C08091610005
:100260008F3F09F444C0182F893008F018E0811B33
:100270008093610080916C0098E8892780936C00DE
:10028000112341F120918600309187008091640014
:1002900086FF0DC0ADE6B0E080E090E0F901E80F28
:1002A000F91FE491ED9301961817C1F708C0912F3B
:1002B000D901EDE6F0E08D9181939150E1F7115075
:1002C000812F90E01F5F0196820F931F909387000C
:1002D000809386008DE690E0612F4ED0612F6C5F99
:1002E0006C3019F08FEF809361006093600094E1AF
:1002F00086B3837031F49150D9F71092890010922F
:100300008300DF91CF911F9108951F93DC01162F79
:100310008091770084FF07C08091780098E8892752
:100320008093780003C08AE580937700912FE9E7F6
:10033000F0E08D91819391501916DCF389E790E0FC
:10034000612F1AD01C5F109377001F910895A82F7A
:10035000B92F80E090E041E050EA609530E009C0BC
:100360002D9182279795879510F084279527305EE9
:10037000C8F36F5FA8F30895EADF8D939D93089506
:10038000CF93CFB7CF93C395B09BE9F7B09B09C08C
:10039000B09B07C0B09B05C0B09B03C0B09B01C021
:1003A000A3C0DF93C0918500DD27C457DF4FB09B0A
:1003B00002C0DF91EBCF2F930F931F9306B32FEF64
:1003C00000FB20F94F933F9316B34FEF012700FB3B
:1003D00021F93BE031C04E7F012F16B3216028C0C8
:1003E000102F4D7F2260000006B329C04B7F246090
:1003F000012F000016B32BC016B3477F28602AC018
:100400004F7E06B320612CC04F7D16B320622FC0F3
:100410004F7B06B3206432C0422706B349934FEFA7
:100420000000102710FB20F916B31370C9F1297FC3
:1004300091F2012700FB21F906B3237F89F23150A5
:1004400058F1102710FB22F916B3277E79F2012705
:1004500000FB23F92F7C81F206B3102710FB24F94F
:100460002F7971F200C016B3012700FB25F92F7315
:1004700059F200C006B3102710FB26F9223040F2D3
:1004800000C016B3012700FB27F9243028F64F7768
:10049000206816B30000F9CF10E41ABF002719C076
:1004A0003B503195C31BD04010E41ABF0881033C78
:1004B000F9F00B34E9F0209183001981110F121328
:1004C000EDCF4A81441F093641F10D3211F0013E52
:1004D00029F700938A003F914F911F910F912F911F
:1004E000DF91CAB7C6FD4FCFCF91CFBFCF9118953F
:1004F00020918A00222379F310918800112369F555
:1005000034306AF130938800209384001091850084
:100510003BE0311B3093850022C000918800013000
:10052000E4F40AE54F7049F43091600034FD19C0DD
:1005300000936000CCE6D0E018C03091770034FD25
:1005400010C000937700C8E7D0E00FC02795A8F44B
:100550005150A9F4220F0000F9CF4AE503C042ED43
:1005600001C0432FC4E1D0E032E017B31360C09A5A
:1005700017BB08B320E413E05F93012756E008BBE4
:10058000279520F4515021F4220FF9CF012756E08E
:1005900000003B5A08BBD0F2279528F4515029F4AB
:1005A000220F0000F9CF012756E0279508BB20F461
:1005B000515021F4220FF9CF012756E0299133231E
:1005C00008BB21F60C7F10918900110FC651D04055
:1005D00008BB11F01093830010E41ABF016017B339
:1005E0001C7F402F4C7F5F9100C000C008BB17BB31
:1005F00048BB71CFFC01808180768032E1F481813B
:10060000813041F487E690E09093870080938600E4
:1006100084E00895823041F48BE690E09093870067
:100620008093860081E008958A3029F48381809345
:100630006B0080E0089580E008952EE088E190E06E
:100640000FB6F894A89581BD0FBE21BD4DDDB89AB7
:1006500020E048EB5BE004C0A895CA010197F1F7E0
:100660002150D1F7B8987894A8954BDD8091770008
:1006700084FFFACF4091650050916600141615066C
:100680001CF080EE9FEF02C080E290E0840F951F87
:1006900036E0959587953A95E1F780936800282F85
:1006A000332727FD30958091620090916300280FD9
:1006B000391F3093630020936200121613061CF05A
:1006C00080EE9FEF02C080E290E0820F931F26E051
:1006D000959587952A95E1F780936900992787FD7D
:1006E0009095481B590B509366004093650087E630
:0C06F00090E064E00ADEB8CFF894FFCF81
:0406FC005AFFC001E0
:00000001FF
