:1000000012C019C018C017C016C015C014C013C044
:1000100012C011C010C00FC00EC00DC00CC00BC06C
:100020000AC009C008C011241FBECFE5D4E0DEBF5E
:10003000CDBF02D02EC0E4CFA09AA89AA19AA99AC7
:10004000A8982FEF8EE994E2215080409040E1F78C
:1000500000C00000A9982FEF8EE994E22150804063
:100060009040E1F700C00000A89A2FEF8EE994E2DB
:10007000215080409040E1F700C00000A99A2FEF86
:100080008EE994E2215080409040E1F700C00000EA
:0A009000D7CFF89400C0F894FFCF1A
:00000001FF
