:100000005DC0A4C076C075C074C073C072C071C03A
:1000100070C06FC06EC06DC06CC06BC06AC069C07C
:1000200068C067C066C005010906A101050719E09F
:1000300029E71500250175019508810295017508CC
:100040002565190029658100C0090222000101000F
:10005000A0190904000001030000000921010100AA
:10006000012223000705810308000A120110010084
:10007000000008424231E10001010200011603487C
:1000800000610075006E0074006500640055005347
:10009000004200240369006D0061006B0065007080
:1000A0000072006F006A0065006300740073002E28
:1000B0000063006F006D00040309040011241FBEDB
:1000C000CFE5D4E0DEBFCDBF10E0A0E6B0E0E8EFC2
:1000D000F9E002C005900D92A636B107D9F710E0FD
:1000E000A6E6B0E001C01D92A63AB107E1F731D211
:1000F00025C486CFA82FB92F80E090E041E050EAD8
:10010000609530E009C02D9182279795879510F072
:1001100084279527305EC8F36F5FA8F30895EADF60
:100120008D939D930895A6E088279927AA9569F055
:100130000197E1F3B099FCCFB09BFECF81E0992706
:10014000A6B3019611F0A370D9F70895CF93CFB756
:10015000CF93C395B09BE9F7B09B09C0B09B07C094
:10016000B09B05C0B09B03C0B09B01C0A3C0DF9390
:10017000C0918900DD27C057DF4FB09B02C0DF91DF
:10018000EBCF2F930F931F9306B32FEF00FB20F9B4
:100190004F933F9316B34FEF012700FB21F93BE04C
:1001A00031C04E7F012F16B3216028C0102F4D7F24
:1001B0002260000006B329C04B7F2460012F00009D
:1001C00016B32BC016B3477F28602AC04F7E06B3F4
:1001D00020612CC04F7D16B320622FC04F7B06B329
:1001E000206432C0422706B349934FEF0000102726
:1001F00010FB20F916B31370C9F1297F91F2012782
:1002000000FB21F906B3237F89F2315058F1102702
:1002100010FB22F916B3277E79F2012700FB23F9A0
:100220002F7C81F206B3102710FB24F92F7971F28D
:1002300000C016B3012700FB25F92F7359F200C047
:1002400006B3102710FB26F9223040F200C016B387
:10025000012700FB27F9243028F64F77206816B3D2
:100260000000F9CF10E41ABF002719C03B503195A8
:10027000C31BD04010E41ABF0881033CF9F00B34D3
:10028000E9F0209186001981110F1213EDCF4A81F8
:10029000441F093641F10D3211F0013E29F7009358
:1002A0008E003F914F911F910F912F91DF91CAB70F
:1002B000C6FD4FCFCF91CFBFCF91189520918E0023
:1002C000222379F310918C00112369F534306AF1FF
:1002D00030938C0020938800109189003BE0311B03
:1002E0003093890022C000918C000130E4F40AE5CB
:1002F0004F7049F43091650034FD19C000936500DA
:10030000CFE6D0E018C030917A0034FD10C00093E1
:100310007A00CBE7D0E00FC02795A8F45150A9F49C
:10032000220F0000F9CF4AE503C042ED01C0432F80
:10033000C4E1D0E032E017B31360C09A17BB08B332
:1003400020E413E05F93012756E008BB279520F4D3
:10035000515021F4220FF9CF012756E000003B5AFB
:1003600008BBD0F2279528F4515029F4220F000041
:10037000F9CF012756E0279508BB20F4515021F40E
:10038000220FF9CF012756E02991332308BB21F62C
:100390000C7F10918D00110FC651D04008BB11F099
:1003A0001093860010E41ABF016017B31C7F402F22
:1003B0004C7F5F9100C000C008BB17BB48BB71CF2A
:1003C000CF92DF92EF92FF920F931F938B019C01CC
:1003D000B901992777FD9095892F680179014FE040
:1003E000CC0CDD1CEE1CFF1C4A95D1F7E894F7F805
:1003F0006C0D7D1D8E1D9F1D6801790155E1F594E1
:10040000E794D794C7945A95D1F76C197D098E0952
:100410009F09EAE0000F111F221F331FEA95D1F751
:100420003F77601B710B820B930B97FF04C06150E9
:100430007109810990481F910F91FF90EF90DF9013
:10044000CF9008956CD2BC01882777FD8095982FB6
:10045000B7DF662788279927FDE0959587957795DB
:100460006795FA95D1F7611571058105910509F434
:100470004AC0613071058105910509F446C06230BA
:1004800071058105910589F063307105810591053C
:10049000C9F06430710581059105B1F020E0653047
:1004A00071058105910591F001C02AE26630710560
:1004B0008105910569F0673071058105910549F461
:1004C00029E307C02CE205C023E503C02BE201C0ED
:1004D0002CE490916B0091110DC0809168008823ED
:1004E00051F0833011F029E301C020E08150809366
:1004F000680001C020E09F5F90936B0010926D0038
:1005000020936E00089529E3CACF29E4C8CFFC01E7
:100510008DE690E090938B0080938A0080818076B6
:100520008032A9F48181813019F48CDF82E0089552
:10053000823041F48CE690E090938B0080938A00A7
:1005400081E008958A3019F4838180936C0080E003
:100550000895B89A84E1E7ECFFEA3197F1F700C01B
:1005600000008150C1F7B8982EE088E190E00FB606
:10057000F894A89581BD0FBE21BD8EB588608EBD53
:1005800081E09DE59BBD8ABD8EB582608EBD88EC05
:1005900090E090936A008093690083E08093680004
:1005A00067D17894A0E1FA2ECBE3D1E00CE310E020
:1005B000A89558D080917A0084FF09C080916B0083
:1005C000823028F43FDF62E08DE690E027D008B665
:1005D00004FEEECFF8BE8091660090916700019610
:1005E00090936700809366002091690030916A00C3
:1005F00082179307E8F2D0936A00C0936900809154
:100600006800823020F010936A0000936900109215
:1006100067001092660010926B00CACFCF93C62F6E
:1006200020917A0024FF07C020917B0038E823271F
:1006300020937B0003C02AE520937A00DC01ECE7DD
:10064000F0E09C2F9E0F8D918193892F8E1B1816A1
:10065000D4F36C2F8CE790E062DDCC5FC0937A001E
:10066000CF910895CF93DF9380918C00835087FDC5
:10067000A8C090918900209188002D3209F09FC078
:10068000883009F09CC0CCE0D0E0C91BD109C0572C
:10069000DF4F83EC80936F008AE5809365001092B2
:1006A00087008881807619F0CE0131DF7FC09A8182
:1006B000109278008981811106C01092790028E794
:1006C00030E082E06FC0853019F490938D0067C0F0
:1006D000863009F04EC08B81813041F48BE690E08A
:1006E00090938B0080938A0082E13FC0823041F476
:1006F00089E490E090938B0080938A0082E235C079
:100700008330F1F4911108C087EB90E090938B0057
:1007100080938A0084E029C0913041F483E990E01D
:1007200090938B0080938A0084E21FC09230E1F4A2
:100730008DE790E090938B0080938A0086E115C04E
:10074000813241F48BE590E090938B0080938A0096
:1007500089E00BC0823241F486E290E090938B00F6
:1007600080938A0083E201C080E090E49093870048
:100770001DC0883069F0893019F490938F000FC044
:100780008A3049F08B3059F48BE480937B0007C0AA
:100790002FE830E002C028E730E081E003C028E71E
:1007A00030E080E030938B0020938A009F8191118C
:1007B00004C09E81981708F4892F809364001092DA
:1007C0008C008091650084FF46C0809164008F3F5B
:1007D00009F441C0C82F893008F0C8E08C1B809311
:1007E000640080916F0098E8892780936F00CC2384
:1007F00031F120918A0030918B008091870086FF33
:100800000BC0A0E7B0E0F9018C2F8A0F94919D9363
:1008100031968A13FBCF09C0D901E0E7F0E08C2FB5
:100820008E0F9D9191938E13FCCF8FEF8C0F90E0E4
:100830000196820F931F90938B0080938A006C2FF8
:1008400080E790E06CDCCC5FCC3019F08FEF8093C8
:100850006400C093650084E196B3937031F48150D5
:10086000D9F710928D0010928600DF91CF910895F4
:1008700085B7836085BF8BB780648BBF8BE4809323
:100880007B008AE580937A0008958F929F92AF92C1
:10089000BF92CF92DF92EF92FF92CF93DF93EC0162
:1008A000688179818A819B81611571058105910536
:1008B00021F464E279ED8BE597E02DE133EF41E03F
:1008C00050E04ED049015A019B01AC01A7EAB1E4C6
:1008D00037D06B017C01ACEEB4EFA50194013CD0A4
:1008E000C60ED71EE81EF91EF7FE06C081E0C81A24
:1008F000D108E10880E8F80AC882D982EA82FB823E
:10090000C6019F77DF91CF91FF90EF90DF90CF905E
:10091000BF90AF909F908F900895B7DF089580E6C5
:1009200090E0B3DF0895A0E0B0E080936000909382
:100930006100A0936200B09363000895F8945AC0D8
:100940002BD0A59F900DB49F900DA49F800D911D5D
:1009500011240895B7FFF4CFF3DF821B930B0895A2
:10096000052E97FB16F400940FD057FD05D020D02C
:1009700007FC02D046F408C050954095309521956B
:100980003F4F4F4F5F4F08959095809570956195BB
:100990007F4F8F4F9F4F0895A29FB001B39FC0011B
:1009A000A39F01D0B29F700D811D1124911D089548
:1009B000A1E21A2EAA1BBB1BFD010DC0AA1FBB1F63
:1009C000EE1FFF1FA217B307E407F50720F0A21BD5
:1009D000B30BE40BF50B661F771F881F991F1A9442
:1009E00069F760957095809590959B01AC01BD016C
:0809F000CF010895F894FFCF38
:0609F80001000000FF5A9F
:00000001FF
