:100000003AC049C048C047C046C045C044C043C0CC
:1000100042C0F0C040C03FC03EC03DC03CC03BC03D
:100020003AC039C038C000000000000000000003E2
:10003000040600000000000000000000000038007E
:1000400035003200000000003700340031000404A5
:100050000404040404040202020202020303030370
:10006000030301020408102040800102040810204C
:1000700001020408102011241FBECFE5D4E0DEBF2A
:10008000CDBF20E0A0E6B0E001C01D92A936B207C6
:10009000E1F7FAD04EC1B4CF90E0FC01EE59FF4F2A
:1000A0002491FC01E25BFF4F8491882399F090E05A
:1000B000880F991FFC01EC5BFF4FA591B491FC01E7
:1000C000E65CFF4F859194918FB7F894EC91E22B09
:1000D000EC938FBF089590E0FC01EA5DFF4F3491EF
:1000E000FC01EE59FF4F2491FC01E25BFF4FE491CC
:1000F000EE2331F1332381F0343039F0363049F0DA
:10010000333051F48FB58F7702C08FB58F7D8FBD9F
:1001100003C085B58F7D85BDF0E0EE0FFF1FE65C67
:10012000FF4FA591B4918FB7F894611105C09C91D0
:10013000E22FE095E92302C0EC91E22BEC938FBF14
:1001400008959FB7F89440916500509166006091C2
:1001500067007091680082B708B600FE06C08F3F46
:1001600021F04F5F5F4F6F4F7F4F9FBF762F652FFF
:10017000542F44279A01AB01280F311D411D511DF9
:10018000A5E0B0E0C0D008958F929F92AF92BF9249
:10019000CF92DF92EF92FF92D4DF4B015C0188EEA9
:1001A000C82E83E0D82EE12CF12CCBDFDC01CB0173
:1001B00088199909AA09BB09883E9340A105B10590
:1001C00058F021E0C21AD108E108F10888EE880E43
:1001D00083E0981EA11CB11CC114D104E104F104F8
:1001E00021F7FF90EF90DF90CF90BF90AF909F905E
:1001F0008F9008951F920F920FB60F9211242F9394
:100200003F938F939F93AF93BF93809161009091A1
:100210006200A0916300B0916400309160002DE213
:10022000230F2D3720F40196A11DB11D05C020EB31
:10023000230F0296A11DB11D2093600080936100E1
:1002400090936200A0936300B09364008091650076
:1002500090916600A0916700B09168000196A11D81
:10026000B11D8093650090936600A0936700B093E2
:100270006800BF91AF919F918F913F912F910F9007
:100280000FBE0F901F901895789483B7826083BF3C
:1002900083B7816083BF89B7816089BF1EBC8EB57B
:1002A00082608EBD8EB581608EBD8FB581608FBD41
:1002B00085B5846085BD85B5806485BD329A319AE7
:1002C0003098379A1AB88EE0E7DE8FE0E5DE61E01D
:1002D0008EE001DF61E08FE0FEDEC0E0D0E060E0B4
:1002E0008FE0F9DE51DF60E08EE0F5DE4DDF61E0AA
:1002F0008FE0F1DE49DF61E08EE0EDDE45DF209743
:1003000071F37EDEECCF09D0A59F900DB49F900DC8
:10031000A49F800D911D11240895A29FB001B39F49
:10032000C001A39F01D0B29F700D811D1124911DAA
:060330000895F894FFCFD0
:00000001FF
