:101800003BC06FC054C053C052C051C050C04FC045
:101810004EC04DC04CC04BC04AC049C048C047C074
:1018200046C045C044C009021200010100A03209AF
:10183000040000000000000012011001FF00000879
:10184000C016DC050201010200010E035500530021
:1018500042006100730070001C037700770077007E
:101860002E00660069007300630068006C002E00A3
:10187000640065000403090411241FBECFE5D4E011
:10188000DEBFCDBF10E0A0E6B0E0E8EBFFE102C0B4
:1018900005900D92A636B107D9F710E0A6E6B0E0A4
:1018A00001C01D92AD39B107E1F75DD183C3A8CF67
:1018B000A82FB92F80E090E041E050EA609530E039
:1018C00009C02D9182279795879510F08427952739
:1018D000305EC8F36F5FA8F30895EADF8D939D93A0
:1018E0000895CF93CFB7CF93C395B09BE9F7B09B43
:1018F00009C0B09B07C0B09B05C0B09B03C0B09BA4
:1019000001C0A1C0DF93C0918000DD27C957DF4F20
:10191000B09B02C0DF91EBCF2F930F931F9306B3C1
:101920002FEF00FB20F94F933F9316B34FEF0127A2
:1019300000FB21F93BE031C04E7F012F16B321603F
:1019400028C0102F4D7F2260000006B329C04B7FB6
:101950002460012F000016B32BC016B3477F286008
:101960002AC04F7E06B320612CC04F7D16B3206283
:101970002FC04F7B06B3206432C0422706B3499381
:101980004FEF0000102710FB20F916B31370C9F1B8
:10199000297F91F2012700FB21F906B3237F89F209
:1019A000315058F1102710FB22F916B3277E79F237
:1019B000012700FB23F92F7C81F206B3102710FBCF
:1019C00024F92F7971F200C016B3012700FB25F925
:1019D0002F7359F200C006B3102710FB26F92230EE
:1019E00040F200C016B3012700FB27F9243028F687
:1019F0004F77206816B30000F9CF10E41ABF002714
:101A000017C03B503195C31BD04010E41ABF08816A
:101A1000033CE9F00B34D9F020917D001981110FBE
:101A20001213EDCF093641F10D3211F0013E39F7B5
:101A3000009385003F914F911F910F912F91DF915E
:101A4000CAB7C6FD51CFCF91CFBFCF911895209186
:101A50008500222379F310918300112311F534308E
:101A600012F13093830020937F00109180003BE0BF
:101A7000311B3093800017C00091830001308CF43B
:101A80000AE53091610034FD10C000936100C2E7A7
:101A9000D0E00FC02795A8F45150A9F4220F000000
:101AA000F9CF4AE503C042ED01C0432FC4E1D0E0C5
:101AB00032E017B31360C09A17BB08B320E413E0F9
:101AC0005F93012756E008BB279520F4515021F47D
:101AD000220FF9CF012756E000003B5A08BBD0F295
:101AE000279528F4515029F4220F0000F9CF01273F
:101AF00056E0279508BB20F4515021F4220FF9CF6E
:101B0000012756E02991332308BB21F60C7F109161
:101B10008400110FC651D04008BB11F010937D0016
:101B200010E41ABF016017B31C7F402F4C7F5F91F8
:101B300000C000C008BB17BB48BB7CCF1EBC14BA9A
:101B4000F8941BBE15BE81E08BBF1BBEE0916A00FE
:101B5000F0916B000995109271001DBC1CBC8EB5F4
:101B600085608EBD089588E10FB6F89481BD11BCE3
:101B70000FBE04B601FC03C004B600FE05C214BECD
:101B800081E08BBF82E08BBF85B7826085BF8BB75A
:101B900080648BBFB89A80E0815041F0A895E7EB54
:101BA000FBE03197F1F700C00000F6CFB8988EB592
:101BB00088608EBD86EC9DE29BBD8ABD7894CBDFAC
:101BC000A09A20918300235027FD47C18091800077
:101BD000CCE0D0E0C81BD109C957DF4F80917F000E
:101BE0008D3209F0C8C0283009F035C183EC8093EC
:101BF00072008AE58093610010927E008881807671
:101C000009F446C08EB5887F8EBD86E690E090933D
:101C100082008093810029812330C9F49B818C81CB
:101C20002A81203339F48370E82FF0E0EE59FF4F1A
:101C3000808109C0203A11F4A8D105C0203C11F4DC
:101C40006D81ABD180E08093690014E01FC0253026
:101C5000E1F08CEF820F863088F48A819B8190932B
:101C60006F0080936E00293071F08E8180936D003B
:101C70008D81827080936C001FEF08C0223019F4B0
:101C800081E08093700010E001C011E064DF60C06B
:101C90009A8110927B008981811106C010927C008C
:101CA0008BE790E012E050C0853019F490938400E7
:101CB0003DC08630A9F58B81813019F488E398E125
:101CC00004C0823041F486E298E1909382008093D0
:101CD000810012E121C08330F1F4911108C084E742
:101CE00098E1909382008093810014E015C09130B8
:101CF00041F488E598E190938200809381001CE193
:101D00000BC0923041F48AE498E190938200809372
:101D100081001EE001C010E080E480937E0018C0C6
:101D2000883079F0893031F4909386008BE790E029
:101D300010E00AC011E08A3009F010E08BE790E073
:101D400003C086E890E011E09093820080938100C8
:101D50001F3F39F4888187FD1E8180E880937E00D3
:101D600007C08F81811104C08E81811708F4182F5C
:101D70001093600070C080917E0087FF6CC08EB5AC
:101D8000887F8EBD80916D00821708F4282F821BFA
:101D900080936D0011E0811110E0DE018A2F8C1B11
:101DA000821708F054C080916E0090916F008F737D
:101DB0009927892BE1F0F894E0916E00F0916F0083
:101DC0008D919D9131E00C0130935700E8951124DD
:101DD000789480916E0090916F00029690936F00BE
:101DE00080936E008F739927892BE1F00EC0F894D1
:101DF000E0916E00F0916F0083E080935700E895CA
:101E0000789407B600FCFDCFD6CF112309F4C6CFD6
:101E10008A2F8C1B821708F4C1CF80916C00882315
:101E200009F4BCCFF894E0916E00F0916F00329706
:101E300085E080935700E895789407B600FCFDCFC5
:101E4000F89481E180935700E8957894A7CF83DEDA
:101E5000111110926000109283008091610084FF44
:101E60006BC0809160008F3F09F466C0C82F893035
:101E700008F0C8E08C1B809360008091720098E8A5
:101E8000892780937200CC2309F44AC080917E0098
:101E900087FF28C08EB5887F8EBD80916D008C171E
:101EA00008F4C82F8C1B80936D0080916E00909178
:101EB0006F00A3E7B0E0E2E7F0E0E095F095E80F0F
:101EC000F91FEA0FFB1F23E730E04A2F421B4C1794
:101ED00018F4E491ED93EFCFF0936F00E0936E0070
:101EE0003ADE1EC0E0918100F091820086FF0BC0B7
:101EF00083E790E0DC0124912D9331962C2F280F5D
:101F00002A13F9CF09C083E790E0DC0121912D93DA
:101F10002C2F280F2A13FACFF0938200E093810030
:101F20006C2F83E790E0D9DCCC5FCC3019F08FEFD9
:101F300080936000C093610084E196B3937031F4A4
:101F40008150D9F71092840010927D0008B604FEEB
:101F500007C0809171008F5F8093710080E188BF1E
:101F600080917100853010F0A19A05C080917000B9
:101F7000882309F426CE8FE799EAE3E08150904068
:101F8000E040E1F700C00000D9DDE199FECF9FBB42
:101F90008EBBE09A99278DB30895262FE199FECF45
:101FA0009FBB8EBB2DBB0FB6F894E29AE19A0FBE91
:081FB00001960895F894FFCF9B
:061FB800FF5A1E93070012
:0400000300001800E1
:00000001FF
