:101800003BC06FC054C053C052C051C050C04FC045
:101810004EC04DC04CC04BC04AC049C048C047C074
:1018200046C045C044C009021200010100A03209AF
:10183000040000000000000012011001FF00000879
:10184000C016DC050201010200010E035500530021
:1018500042006100730070001C037700770077007E
:101860002E00660069007300630068006C002E00A3
:10187000640065000403090411241FBECFE5D4E011
:10188000DEBFCDBF10E0A0E6B0E0E2E6FFE102C0BF
:1018900005900D92A636B107D9F710E0A6E6B0E0A4
:1018A00001C01D92AC39B107E1F755D158C3A8CF9B
:1018B000A82FB92F80E090E041E050EA609530E039
:1018C00009C02D9182279795879510F08427952739
:1018D000305EC8F36F5FA8F30895EADF8D939D93A0
:1018E0000895CF93CFB7CF93C395B09BE9F7B09B43
:1018F00009C0B09B07C0B09B05C0B09B03C0B09BA4
:1019000001C0A1C0DF93C0917F00DD27CA57DF4F20
:10191000B09B02C0DF91EBCF2F930F931F9306B3C1
:101920002FEF00FB20F94F933F9316B34FEF0127A2
:1019300000FB21F93BE031C04E7F012F16B321603F
:1019400028C0102F4D7F2260000006B329C04B7FB6
:101950002460012F000016B32BC016B3477F286008
:101960002AC04F7E06B320612CC04F7D16B3206283
:101970002FC04F7B06B3206432C0422706B3499381
:101980004FEF0000102710FB20F916B31370C9F1B8
:10199000297F91F2012700FB21F906B3237F89F209
:1019A000315058F1102710FB22F916B3277E79F237
:1019B000012700FB23F92F7C81F206B3102710FBCF
:1019C00024F92F7971F200C016B3012700FB25F925
:1019D0002F7359F200C006B3102710FB26F92230EE
:1019E00040F200C016B3012700FB27F9243028F687
:1019F0004F77206816B30000F9CF10E41ABF002714
:101A000017C03B503195C31BD04010E41ABF08816A
:101A1000033CE9F00B34D9F020917C001981110FBF
:101A20001213EDCF093641F10D3211F0013E39F7B5
:101A3000009384003F914F911F910F912F91DF915F
:101A4000CAB7C6FD51CFCF91CFBFCF911895209186
:101A50008400222379F310918200112311F5343090
:101A600012F13093820020937E0010917F003BE0C2
:101A7000311B30937F0017C00091820001308CF43D
:101A80000AE53091610034FD10C000936100C1E7A8
:101A9000D0E00FC02795A8F45150A9F4220F000000
:101AA000F9CF4AE503C042ED01C0432FC4E1D0E0C5
:101AB00032E017B31360C09A17BB08B320E413E0F9
:101AC0005F93012756E008BB279520F4515021F47D
:101AD000220FF9CF012756E000003B5A08BBD0F295
:101AE000279528F4515029F4220F0000F9CF01273F
:101AF00056E0279508BB20F4515021F4220FF9CF6E
:101B0000012756E02991332308BB21F60C7F109161
:101B10008300110FC651D04008BB11F010937C0018
:101B200010E41ABF016017B31C7F402F4C7F5F91F8
:101B300000C000C008BB17BB48BB7CCF12BA14BAA8
:101B4000F8941BBE15BE81E08BBF1BBEE0916A00FE
:101B5000F0916B00099588E10FB6F89481BD11BC36
:101B60000FBE979A04B601FEE4C114BE81E08BBF9C
:101B700082E08BBF8799D4C185B7826085BF8BB760
:101B800080648BBFB89A80E0815041F0A895E7EB64
:101B9000FBE03197F1F700C00000F6CFB8987894D9
:101BA000A09A20918200235027FD3FC180917F00A1
:101BB000CCE0D0E0C81BD109CA57DF4F80917E002E
:101BC0008D3209F0C4C0283009F02DC183EC809318
:101BD00071008AE58093610010927D004881842F16
:101BE00080763981882309F441C086E690E090939D
:101BF0008100809380003330C9F49B818C812A81DD
:101C0000203339F48370E82FF0E0EE59FF4F8081E4
:101C100009C0203A11F48ED105C0203C11F46D8129
:101C200091D180E08093690024E087C03530E1F0F5
:101C30008CEF830F863088F48A819B8190936F00AC
:101C400080936E00393071F08E8180936D008D81AC
:101C5000827080936C002FEF6AC0323019F481E0FB
:101C60008093700020E069C021E067C08A811092F3
:101C70007A00311106C010927B008AE790E022E0E2
:101C800050C0353019F4809383003DC03630A9F53B
:101C90009B81913019F488E398E104C0923041F4BB
:101CA00086E298E1909381008093800022E121C038
:101CB0009330F1F4811108C084E798E1909381009A
:101CC0008093800024E015C0813041F488E598E1DC
:101CD00090938100809380002CE10BC0823041F40E
:101CE0008AE498E190938100809380002EE001C007
:101CF00020E080E480937D0018C0383079F03930DE
:101D000031F4809385008AE790E020E00AC021E06A
:101D10003A3009F020E08AE790E003C085E890E0DF
:101D200021E090938100809380002F3F31F447FDA4
:101D30002E8180E880937D0007C08F81811104C0CF
:101D40008E81821708F4282F209360006CC0809148
:101D50007D0087FF68C080916D00821708F4282FEE
:101D6000821B80936D0031E0811130E0DE018A2F0B
:101D70008C1B821708F054C080916E0090916F0008
:101D80008F739927892BE1F0F894E0916E00F09120
:101D90006F008D919D9141E00C0140935700E895B3
:101DA0001124789480916E0090916F000296909328
:101DB0006F0080936E008F739927892BE1F00EC01E
:101DC000F894E0916E00F0916F0083E080935700EB
:101DD000E895789407B600FCFDCFD6CF332309F4FD
:101DE000C6CF8A2F8C1B821708F4C1CF80916C005C
:101DF000882309F4BCCFF894E0916E00F0916F0055
:101E0000329785E080935700E895789407B600FCF8
:101E1000FDCFF89481E180935700E8957894A7CF9F
:101E2000311110926000109282008091610084FF55
:101E300067C0809160008F3F09F462C0C82F89306D
:101E400008F0C8E08C1B809360008091710098E8D6
:101E5000892780937100CC2309F446C080917D00CE
:101E600087FF24C080916D008C1708F4C82F8C1B4D
:101E700080936D0080916E0090916F00A2E7B0E0BA
:101E8000E1E7F0E0E095F095E80FF91FEA0FFB1F9E
:101E900022E730E04A2F421B4C1718F4E491ED93EF
:101EA000EFCFF0936F00E0936E001EC0E0918000D2
:101EB000F091810086FF0BC082E790E0DC01249165
:101EC0002D9331962C2F280F2A13F9CF09C082E7C2
:101ED00090E0DC0121912D932C2F280F2A13FACFAB
:101EE000F0938100E09380006C2F82E790E0F5DCB6
:101EF000CC5FCC3019F08FEF80936000C09361000D
:101F000084E196B3937031F48150D9F71092830035
:101F100010927C0080917000811102C080B341CE8C
:101F20008FE799EAE3E081509040E040E1F700C09C
:101F3000000004DEE199FECF9FBB8EBBE09A99279B
:101F40008DB30895262FE199FECF9FBB8EBB2DBB8D
:101F50000FB6F894E29AE19A0FBE01960895F894AC
:021F6000FFCFB1
:061F6200FF5A1E93070068
:0400000300001800E1
:00000001FF
